{
  "contractName": "Ebay",
  "abi": [
    {
      "inputs": [
        {
          "internalType": "string",
          "name": "_name",
          "type": "string"
        },
        {
          "internalType": "string",
          "name": "_desicirption",
          "type": "string"
        },
        {
          "internalType": "uint256",
          "name": "_min",
          "type": "uint256"
        },
        {
          "internalType": "uint256",
          "name": "_duration",
          "type": "uint256"
        }
      ],
      "name": "createAuction",
      "outputs": [],
      "stateMutability": "nonpayable",
      "type": "function"
    },
    {
      "inputs": [
        {
          "internalType": "uint256",
          "name": "_auctionId",
          "type": "uint256"
        }
      ],
      "name": "makeOffer",
      "outputs": [],
      "stateMutability": "payable",
      "type": "function",
      "payable": true
    },
    {
      "inputs": [
        {
          "internalType": "uint256",
          "name": "_auctionId",
          "type": "uint256"
        }
      ],
      "name": "trade",
      "outputs": [],
      "stateMutability": "nonpayable",
      "type": "function"
    },
    {
      "inputs": [],
      "name": "getAuctions",
      "outputs": [
        {
          "components": [
            {
              "internalType": "uint256",
              "name": "id",
              "type": "uint256"
            },
            {
              "internalType": "address payable",
              "name": "seller",
              "type": "address"
            },
            {
              "internalType": "string",
              "name": "name",
              "type": "string"
            },
            {
              "internalType": "string",
              "name": "description",
              "type": "string"
            },
            {
              "internalType": "uint256",
              "name": "min",
              "type": "uint256"
            },
            {
              "internalType": "uint256",
              "name": "end",
              "type": "uint256"
            },
            {
              "internalType": "uint256",
              "name": "bestOfferId",
              "type": "uint256"
            },
            {
              "internalType": "uint256[]",
              "name": "offerIds",
              "type": "uint256[]"
            }
          ],
          "internalType": "struct Ebay.Auction[]",
          "name": "",
          "type": "tuple[]"
        }
      ],
      "stateMutability": "view",
      "type": "function",
      "constant": true
    },
    {
      "inputs": [
        {
          "internalType": "address",
          "name": "_user",
          "type": "address"
        }
      ],
      "name": "getUsersAuctions",
      "outputs": [
        {
          "components": [
            {
              "internalType": "uint256",
              "name": "id",
              "type": "uint256"
            },
            {
              "internalType": "address payable",
              "name": "seller",
              "type": "address"
            },
            {
              "internalType": "string",
              "name": "name",
              "type": "string"
            },
            {
              "internalType": "string",
              "name": "description",
              "type": "string"
            },
            {
              "internalType": "uint256",
              "name": "min",
              "type": "uint256"
            },
            {
              "internalType": "uint256",
              "name": "end",
              "type": "uint256"
            },
            {
              "internalType": "uint256",
              "name": "bestOfferId",
              "type": "uint256"
            },
            {
              "internalType": "uint256[]",
              "name": "offerIds",
              "type": "uint256[]"
            }
          ],
          "internalType": "struct Ebay.Auction[]",
          "name": "",
          "type": "tuple[]"
        }
      ],
      "stateMutability": "view",
      "type": "function",
      "constant": true
    },
    {
      "inputs": [
        {
          "internalType": "address",
          "name": "_user",
          "type": "address"
        }
      ],
      "name": "getUsersOffers",
      "outputs": [
        {
          "components": [
            {
              "internalType": "uint256",
              "name": "id",
              "type": "uint256"
            },
            {
              "internalType": "uint256",
              "name": "auctionId",
              "type": "uint256"
            },
            {
              "internalType": "address payable",
              "name": "buyer",
              "type": "address"
            },
            {
              "internalType": "uint256",
              "name": "price",
              "type": "uint256"
            }
          ],
          "internalType": "struct Ebay.Offer[]",
          "name": "",
          "type": "tuple[]"
        }
      ],
      "stateMutability": "view",
      "type": "function",
      "constant": true
    }
  ],
  "bytecode": "0x60806040526001600455600160055534801561001a57600080fd5b50611d498061002a6000396000f3fe6080604052600436106100555760003560e01c806361e2db551461005a578063657289d4146100835780639a2f6474146100c0578063b2554478146100dc578063d7c0691914610119578063df1dd82614610144575b600080fd5b34801561006657600080fd5b50610081600480360381019061007c91906112d0565b61016d565b005b34801561008f57600080fd5b506100aa60048036038101906100a591906113d5565b61049c565b6040516100b79190611536565b60405180910390f35b6100da60048036038101906100d59190611558565b61063d565b005b3480156100e857600080fd5b5061010360048036038101906100fe91906113d5565b61087d565b604051610110919061184d565b60405180910390f35b34801561012557600080fd5b5061012e610ba4565b60405161013b919061184d565b60405180910390f35b34801561015057600080fd5b5061016b60048036038101906101669190611558565b610e86565b005b600082116101b0576040517f08c379a00000000000000000000000000000000000000000000000000000000081526004016101a7906118cc565b60405180910390fd5b62015180811180156101c45750620d2f0081105b610203576040517f08c379a00000000000000000000000000000000000000000000000000000000081526004016101fa9061195e565b60405180910390fd5b60008067ffffffffffffffff81111561021f5761021e61197e565b5b60405190808252806020026020018201604052801561024d5781602001602082028036833780820191505090505b50905060405180610100016040528060045481526020013373ffffffffffffffffffffffffffffffffffffffff16815260200188888080601f016020809104026020016040519081016040528093929190818152602001838380828437600081840152601f19601f82011690508083019250505050505050815260200186868080601f016020809104026020016040519081016040528093929190818152602001838380828437600081840152601f19601f820116905080830192505050505050508152602001848152602001834261032691906119dc565b8152602001600081526020018281525060008060045481526020019081526020016000206000820151816000015560208201518160010160006101000a81548173ffffffffffffffffffffffffffffffffffffffff021916908373ffffffffffffffffffffffffffffffffffffffff16021790555060408201518160020190805190602001906103b79291906110a2565b5060608201518160030190805190602001906103d49291906110a2565b506080820151816004015560a0820151816005015560c0820151816006015560e082015181600701908051906020019061040f929190611128565b50905050600260003373ffffffffffffffffffffffffffffffffffffffff1673ffffffffffffffffffffffffffffffffffffffff16815260200190815260200160002060045490806001815401808255809150506001900390600052602060002001600090919091909150556004600081548092919061048e90611a32565b919050555050505050505050565b60606000600360008473ffffffffffffffffffffffffffffffffffffffff1673ffffffffffffffffffffffffffffffffffffffff16815260200190815260200160002090506000818054905067ffffffffffffffff8111156105015761050061197e565b5b60405190808252806020026020018201604052801561053a57816020015b610527611175565b81526020019060019003908161051f5790505b50905060005b828054905081101561063257600083828154811061056157610560611a7a565b5b906000526020600020015490506001600082815260200190815260200160002060405180608001604052908160008201548152602001600182015481526020016002820160009054906101000a900473ffffffffffffffffffffffffffffffffffffffff1673ffffffffffffffffffffffffffffffffffffffff1673ffffffffffffffffffffffffffffffffffffffff16815260200160038201548152505083838151811061061357610612611a7a565b5b602002602001018190525050808061062a90611a32565b915050610540565b508092505050919050565b60008060008381526020019081526020016000209050600060016000836006015481526020019081526020016000209050816005015442106106b4576040517f08c379a00000000000000000000000000000000000000000000000000000000081526004016106ab90611af5565b60405180910390fd5b816004015434101580156106cb5750806003015434115b61070a576040517f08c379a000000000000000000000000000000000000000000000000000000000815260040161070190611b87565b60405180910390fd5b6005548260060181905550816007016005549080600181540180825580915050600190039060005260206000200160009091909190915055604051806080016040528060055481526020018481526020013373ffffffffffffffffffffffffffffffffffffffff16815260200134815250600160006005548152602001908152602001600020600082015181600001556020820151816001015560408201518160020160006101000a81548173ffffffffffffffffffffffffffffffffffffffff021916908373ffffffffffffffffffffffffffffffffffffffff16021790555060608201518160030155905050600360003373ffffffffffffffffffffffffffffffffffffffff1673ffffffffffffffffffffffffffffffffffffffff16815260200190815260200160002060055490806001815401808255809150506001900390600052602060002001600090919091909150556005600081548092919061087390611a32565b9190505550505050565b60606000600260008473ffffffffffffffffffffffffffffffffffffffff1673ffffffffffffffffffffffffffffffffffffffff16815260200190815260200160002090506000818054905067ffffffffffffffff8111156108e2576108e161197e565b5b60405190808252806020026020018201604052801561091b57816020015b6109086111b3565b8152602001906001900390816109005790505b50905060005b8280549050811015610b9957600083828154811061094257610941611a7a565b5b9060005260206000200154905060008082815260200190815260200160002060405180610100016040529081600082015481526020016001820160009054906101000a900473ffffffffffffffffffffffffffffffffffffffff1673ffffffffffffffffffffffffffffffffffffffff1673ffffffffffffffffffffffffffffffffffffffff1681526020016002820180546109dd90611bd6565b80601f0160208091040260200160405190810160405280929190818152602001828054610a0990611bd6565b8015610a565780601f10610a2b57610100808354040283529160200191610a56565b820191906000526020600020905b815481529060010190602001808311610a3957829003601f168201915b50505050508152602001600382018054610a6f90611bd6565b80601f0160208091040260200160405190810160405280929190818152602001828054610a9b90611bd6565b8015610ae85780601f10610abd57610100808354040283529160200191610ae8565b820191906000526020600020905b815481529060010190602001808311610acb57829003601f168201915b5050505050815260200160048201548152602001600582015481526020016006820154815260200160078201805480602002602001604051908101604052809291908181526020018280548015610b5e57602002820191906000526020600020905b815481526020019060010190808311610b4a575b505050505081525050838381518110610b7a57610b79611a7a565b5b6020026020010181905250508080610b9190611a32565b915050610921565b508092505050919050565b606060006001600454610bb79190611c07565b67ffffffffffffffff811115610bd057610bcf61197e565b5b604051908082528060200260200182016040528015610c0957816020015b610bf66111b3565b815260200190600190039081610bee5790505b5090506000600190505b6001600454610c229190611c07565b811015610e7e5760008082815260200190815260200160002060405180610100016040529081600082015481526020016001820160009054906101000a900473ffffffffffffffffffffffffffffffffffffffff1673ffffffffffffffffffffffffffffffffffffffff1673ffffffffffffffffffffffffffffffffffffffff168152602001600282018054610cb790611bd6565b80601f0160208091040260200160405190810160405280929190818152602001828054610ce390611bd6565b8015610d305780601f10610d0557610100808354040283529160200191610d30565b820191906000526020600020905b815481529060010190602001808311610d1357829003601f168201915b50505050508152602001600382018054610d4990611bd6565b80601f0160208091040260200160405190810160405280929190818152602001828054610d7590611bd6565b8015610dc25780601f10610d9757610100808354040283529160200191610dc2565b820191906000526020600020905b815481529060010190602001808311610da557829003601f168201915b5050505050815260200160048201548152602001600582015481526020016006820154815260200160078201805480602002602001604051908101604052809291908181526020018280548015610e3857602002820191906000526020600020905b815481526020019060010190808311610e24575b50505050508152505082600183610e4f9190611c07565b81518110610e6057610e5f611a7a565b5b60200260200101819052508080610e7690611a32565b915050610c13565b508091505090565b80600081118015610e98575060045481105b610ed7576040517f08c379a0000000000000000000000000000000000000000000000000000000008152600401610ece90611c87565b60405180910390fd5b6000806000848152602001908152602001600020905060006001600083600601548152602001908152602001600020905081600501544211610f4e576040517f08c379a0000000000000000000000000000000000000000000000000000000008152600401610f4590611cf3565b60405180910390fd5b60005b826007018054905081101561102c576000836007018281548110610f7857610f77611a7a565b5b90600052602060002001549050836006015481146110185760006001600083815260200190815260200160002090508060020160009054906101000a900473ffffffffffffffffffffffffffffffffffffffff1673ffffffffffffffffffffffffffffffffffffffff166108fc82600301549081150290604051600060405180830381858888f19350505050158015611015573d6000803e3d6000fd5b50505b50808061102490611a32565b915050610f51565b508160010160009054906101000a900473ffffffffffffffffffffffffffffffffffffffff1673ffffffffffffffffffffffffffffffffffffffff166108fc82600301549081150290604051600060405180830381858888f1935050505015801561109b573d6000803e3d6000fd5b5050505050565b8280546110ae90611bd6565b90600052602060002090601f0160209004810192826110d05760008555611117565b82601f106110e957805160ff1916838001178555611117565b82800160010185558215611117579182015b828111156111165782518255916020019190600101906110fb565b5b509050611124919061120e565b5090565b828054828255906000526020600020908101928215611164579160200282015b82811115611163578251825591602001919060010190611148565b5b509050611171919061120e565b5090565b60405180608001604052806000815260200160008152602001600073ffffffffffffffffffffffffffffffffffffffff168152602001600081525090565b60405180610100016040528060008152602001600073ffffffffffffffffffffffffffffffffffffffff1681526020016060815260200160608152602001600081526020016000815260200160008152602001606081525090565b5b8082111561122757600081600090555060010161120f565b5090565b600080fd5b600080fd5b600080fd5b600080fd5b600080fd5b60008083601f84011261125a57611259611235565b5b8235905067ffffffffffffffff8111156112775761127661123a565b5b6020830191508360018202830111156112935761129261123f565b5b9250929050565b6000819050919050565b6112ad8161129a565b81146112b857600080fd5b50565b6000813590506112ca816112a4565b92915050565b600080600080600080608087890312156112ed576112ec61122b565b5b600087013567ffffffffffffffff81111561130b5761130a611230565b5b61131789828a01611244565b9650965050602087013567ffffffffffffffff81111561133a57611339611230565b5b61134689828a01611244565b9450945050604061135989828a016112bb565b925050606061136a89828a016112bb565b9150509295509295509295565b600073ffffffffffffffffffffffffffffffffffffffff82169050919050565b60006113a282611377565b9050919050565b6113b281611397565b81146113bd57600080fd5b50565b6000813590506113cf816113a9565b92915050565b6000602082840312156113eb576113ea61122b565b5b60006113f9848285016113c0565b91505092915050565b600081519050919050565b600082825260208201905092915050565b6000819050602082019050919050565b6114378161129a565b82525050565b600061144882611377565b9050919050565b6114588161143d565b82525050565b608082016000820151611474600085018261142e565b506020820151611487602085018261142e565b50604082015161149a604085018261144f565b5060608201516114ad606085018261142e565b50505050565b60006114bf838361145e565b60808301905092915050565b6000602082019050919050565b60006114e382611402565b6114ed818561140d565b93506114f88361141e565b8060005b8381101561152957815161151088826114b3565b975061151b836114cb565b9250506001810190506114fc565b5085935050505092915050565b6000602082019050818103600083015261155081846114d8565b905092915050565b60006020828403121561156e5761156d61122b565b5b600061157c848285016112bb565b91505092915050565b600081519050919050565b600082825260208201905092915050565b6000819050602082019050919050565b600081519050919050565b600082825260208201905092915050565b60005b838110156115eb5780820151818401526020810190506115d0565b838111156115fa576000848401525b50505050565b6000601f19601f8301169050919050565b600061161c826115b1565b61162681856115bc565b93506116368185602086016115cd565b61163f81611600565b840191505092915050565b600081519050919050565b600082825260208201905092915050565b6000819050602082019050919050565b6000611682838361142e565b60208301905092915050565b6000602082019050919050565b60006116a68261164a565b6116b08185611655565b93506116bb83611666565b8060005b838110156116ec5781516116d38882611676565b97506116de8361168e565b9250506001810190506116bf565b5085935050505092915050565b600061010083016000830151611712600086018261142e565b506020830151611725602086018261144f565b506040830151848203604086015261173d8282611611565b915050606083015184820360608601526117578282611611565b915050608083015161176c608086018261142e565b5060a083015161177f60a086018261142e565b5060c083015161179260c086018261142e565b5060e083015184820360e08601526117aa828261169b565b9150508091505092915050565b60006117c383836116f9565b905092915050565b6000602082019050919050565b60006117e382611585565b6117ed8185611590565b9350836020820285016117ff856115a1565b8060005b8581101561183b578484038952815161181c85826117b7565b9450611827836117cb565b925060208a01995050600181019050611803565b50829750879550505050505092915050565b6000602082019050818103600083015261186781846117d8565b905092915050565b600082825260208201905092915050565b7f6d696e207072696365206d7573742062652067726561746572207468616e2030600082015250565b60006118b660208361186f565b91506118c182611880565b602082019050919050565b600060208201905081810360008301526118e5816118a9565b9050919050565b7f5f6475726174696f6e206d75737420626520636f6d707269736564206265747760008201527f65656e203120746f203130206461797300000000000000000000000000000000602082015250565b600061194860308361186f565b9150611953826118ec565b604082019050919050565b600060208201905081810360008301526119778161193b565b9050919050565b7f4e487b7100000000000000000000000000000000000000000000000000000000600052604160045260246000fd5b7f4e487b7100000000000000000000000000000000000000000000000000000000600052601160045260246000fd5b60006119e78261129a565b91506119f28361129a565b9250827fffffffffffffffffffffffffffffffffffffffffffffffffffffffffffffffff03821115611a2757611a266119ad565b5b828201905092915050565b6000611a3d8261129a565b91507fffffffffffffffffffffffffffffffffffffffffffffffffffffffffffffffff8203611a6f57611a6e6119ad565b5b600182019050919050565b7f4e487b7100000000000000000000000000000000000000000000000000000000600052603260045260246000fd5b7f616c7265617920656e6465640000000000000000000000000000000000000000600082015250565b6000611adf600c8361186f565b9150611aea82611aa9565b602082019050919050565b60006020820190508181036000830152611b0e81611ad2565b9050919050565b7f6d73672e76616c7565206d7573742062652067726561746572207468616e206d60008201527f696e2061756374696f6e20616e64207a65726f00000000000000000000000000602082015250565b6000611b7160338361186f565b9150611b7c82611b15565b604082019050919050565b60006020820190508181036000830152611ba081611b64565b9050919050565b7f4e487b7100000000000000000000000000000000000000000000000000000000600052602260045260246000fd5b60006002820490506001821680611bee57607f821691505b602082108103611c0157611c00611ba7565b5b50919050565b6000611c128261129a565b9150611c1d8361129a565b925082821015611c3057611c2f6119ad565b5b828203905092915050565b7f41756374696f6e206973206e6f74206578697374656400000000000000000000600082015250565b6000611c7160168361186f565b9150611c7c82611c3b565b602082019050919050565b60006020820190508181036000830152611ca081611c64565b9050919050565b7f6e6f7420656e6465640000000000000000000000000000000000000000000000600082015250565b6000611cdd60098361186f565b9150611ce882611ca7565b602082019050919050565b60006020820190508181036000830152611d0c81611cd0565b905091905056fea26469706673582212209222156069bb04b972e738eeae595428d2528b5106b1eba7318fd225da17eb3864736f6c634300080d0033",
  "immutableReferences": {},
  "source": "// SPDX-License-Identifier: MIT\npragma solidity ^0.8.13;\n\ncontract Ebay {\n    struct Auction {\n        uint id;\n        address payable seller;\n        string name;\n        string description;\n        uint min;\n        uint end;\n        uint bestOfferId;\n        uint[] offerIds;\n    }\n\n    struct Offer {\n        uint id;\n        uint auctionId;\n        address payable buyer;\n        uint price;\n    }\n\n    mapping(uint => Auction) private auctions;\n    mapping(uint => Offer) private offers;\n    mapping(address => uint[]) private usersAuctions;\n    mapping(address => uint[]) private usersOffers;\n\n    uint private nextAuctionId = 1;\n    uint private nextOfferId = 1;\n\n    function createAuction(\n        string calldata _name,\n        string calldata _desicirption,\n        uint _min,\n        uint _duration\n    ) external {\n        require(_min > 0, \"min price must be greater than 0\");\n        require(\n            _duration > 86400 && _duration < 864000,\n            \"_duration must be comprised between 1 to 10 days\"\n        );\n\n        uint[] memory offerIds = new uint[](0);\n        auctions[nextAuctionId] = Auction(\n            nextAuctionId,\n            payable(msg.sender),\n            _name,\n            _desicirption,\n            _min,\n            block.timestamp + _duration,\n            0,\n            offerIds\n        );\n        usersAuctions[msg.sender].push(nextAuctionId);\n        nextAuctionId++;\n    }\n\n    function makeOffer(uint _auctionId) external payable {\n        Auction storage auction = auctions[_auctionId];\n        Offer storage bestOffer = offers[auction.bestOfferId];\n        require(block.timestamp < auction.end, \"alreay ended\");\n        require(\n            msg.value >= auction.min && msg.value > bestOffer.price,\n            \"msg.value must be greater than min auction and zero\"\n        );\n        auction.bestOfferId = nextOfferId;\n        auction.offerIds.push(nextOfferId);\n        offers[nextOfferId] = Offer(\n            nextOfferId,\n            _auctionId,\n            payable(msg.sender),\n            msg.value\n        );\n        usersOffers[msg.sender].push(nextOfferId);\n        nextOfferId++;\n    }\n\n    function trade(uint _auctionId) external auctionExists(_auctionId) {\n        Auction storage auction = auctions[_auctionId];\n        Offer storage bestOffer = offers[auction.bestOfferId];\n        require(block.timestamp > auction.end, \"not ended\");\n        for (uint i = 0; i < auction.offerIds.length; i++) {\n            uint offerId = auction.offerIds[i];\n            if (offerId != auction.bestOfferId) {\n                Offer storage offer = offers[offerId];\n                offer.buyer.transfer(offer.price);\n            }\n        }\n        auction.seller.transfer(bestOffer.price);\n    }\n\n    function getAuctions() external view returns (Auction[] memory) {\n        Auction[] memory _auctions = new Auction[](nextAuctionId - 1);\n        for (uint i = 1; i < nextAuctionId - 1; i++) {\n            _auctions[i - 1] = auctions[i];\n        }\n        return (_auctions);\n    }\n\n    function getUsersAuctions(\n        address _user\n    ) external view returns (Auction[] memory) {\n        uint[] storage usersAuctionIds = usersAuctions[_user];\n        Auction[] memory _auctions = new Auction[](usersAuctionIds.length);\n        for (uint i = 0; i < usersAuctionIds.length; i++) {\n            uint auctionId = usersAuctionIds[i];\n            _auctions[i] = auctions[auctionId];\n        }\n\n        return _auctions;\n    }\n\n    function getUsersOffers(\n        address _user\n    ) external view returns (Offer[] memory) {\n        uint[] storage usersOfferIds = usersOffers[_user];\n        Offer[] memory _offers = new Offer[](usersOfferIds.length);\n        for (uint i = 0; i < usersOfferIds.length; i++) {\n            uint offerId = usersOfferIds[i];\n            _offers[i] = offers[offerId];\n        }\n\n        return _offers;\n    }\n\n    modifier auctionExists(uint _auctionId) {\n        require(\n            _auctionId > 0 && _auctionId < nextAuctionId,\n            \"Auction is not existed\"\n        );\n        _;\n    }\n}\n",
  "sourcePath": "E:\\Coding\\Web3\\Web3 master\\Ebay\\app\\contracts\\Ebay.sol",
  "compiler": {
    "name": "solc",
    "version": "0.8.13+commit.abaa5c0e.Emscripten.clang"
  },
  "schemaVersion": "3.4.16",
  "updatedAt": "2025-01-20T11:16:23.996Z",
  "networkType": "ethereum",
  "devdoc": {
    "kind": "dev",
    "methods": {},
    "version": 1
  },
  "userdoc": {
    "kind": "user",
    "methods": {},
    "version": 1
  }
}