{
  "contractName": "Ebay",
  "abi": [
    {
      "inputs": [
        {
          "internalType": "string",
          "name": "_name",
          "type": "string"
        },
        {
          "internalType": "string",
          "name": "_desicirption",
          "type": "string"
        },
        {
          "internalType": "uint256",
          "name": "_min",
          "type": "uint256"
        },
        {
          "internalType": "uint256",
          "name": "_duration",
          "type": "uint256"
        }
      ],
      "name": "createAuction",
      "outputs": [],
      "stateMutability": "nonpayable",
      "type": "function"
    },
    {
      "inputs": [
        {
          "internalType": "uint256",
          "name": "_auctionId",
          "type": "uint256"
        }
      ],
      "name": "makeOffer",
      "outputs": [],
      "stateMutability": "payable",
      "type": "function"
    },
    {
      "inputs": [
        {
          "internalType": "uint256",
          "name": "_auctionId",
          "type": "uint256"
        }
      ],
      "name": "trade",
      "outputs": [],
      "stateMutability": "nonpayable",
      "type": "function"
    },
    {
      "inputs": [],
      "name": "getAuctions",
      "outputs": [
        {
          "components": [
            {
              "internalType": "uint256",
              "name": "id",
              "type": "uint256"
            },
            {
              "internalType": "address payable",
              "name": "seller",
              "type": "address"
            },
            {
              "internalType": "string",
              "name": "name",
              "type": "string"
            },
            {
              "internalType": "string",
              "name": "description",
              "type": "string"
            },
            {
              "internalType": "uint256",
              "name": "min",
              "type": "uint256"
            },
            {
              "internalType": "uint256",
              "name": "end",
              "type": "uint256"
            },
            {
              "internalType": "uint256",
              "name": "bestOfferId",
              "type": "uint256"
            },
            {
              "internalType": "uint256[]",
              "name": "offerIds",
              "type": "uint256[]"
            }
          ],
          "internalType": "struct Ebay.Auction[]",
          "name": "",
          "type": "tuple[]"
        }
      ],
      "stateMutability": "view",
      "type": "function"
    },
    {
      "inputs": [
        {
          "internalType": "address",
          "name": "_user",
          "type": "address"
        }
      ],
      "name": "getUsersAuctions",
      "outputs": [
        {
          "components": [
            {
              "internalType": "uint256",
              "name": "id",
              "type": "uint256"
            },
            {
              "internalType": "address payable",
              "name": "seller",
              "type": "address"
            },
            {
              "internalType": "string",
              "name": "name",
              "type": "string"
            },
            {
              "internalType": "string",
              "name": "description",
              "type": "string"
            },
            {
              "internalType": "uint256",
              "name": "min",
              "type": "uint256"
            },
            {
              "internalType": "uint256",
              "name": "end",
              "type": "uint256"
            },
            {
              "internalType": "uint256",
              "name": "bestOfferId",
              "type": "uint256"
            },
            {
              "internalType": "uint256[]",
              "name": "offerIds",
              "type": "uint256[]"
            }
          ],
          "internalType": "struct Ebay.Auction[]",
          "name": "",
          "type": "tuple[]"
        }
      ],
      "stateMutability": "view",
      "type": "function"
    },
    {
      "inputs": [
        {
          "internalType": "address",
          "name": "_user",
          "type": "address"
        }
      ],
      "name": "getUsersOffers",
      "outputs": [
        {
          "components": [
            {
              "internalType": "uint256",
              "name": "id",
              "type": "uint256"
            },
            {
              "internalType": "uint256",
              "name": "auctionId",
              "type": "uint256"
            },
            {
              "internalType": "address payable",
              "name": "buyer",
              "type": "address"
            },
            {
              "internalType": "uint256",
              "name": "price",
              "type": "uint256"
            }
          ],
          "internalType": "struct Ebay.Offer[]",
          "name": "",
          "type": "tuple[]"
        }
      ],
      "stateMutability": "view",
      "type": "function"
    }
  ],
  "bytecode": "0x60806040526001600455600160055534801561001a57600080fd5b50611c798061002a6000396000f3fe6080604052600436106100555760003560e01c806361e2db551461005a578063657289d4146100835780639a2f6474146100c0578063b2554478146100dc578063d7c0691914610119578063df1dd82614610144575b600080fd5b34801561006657600080fd5b50610081600480360381019061007c9190611200565b61016d565b005b34801561008f57600080fd5b506100aa60048036038101906100a59190611305565b610434565b6040516100b79190611466565b60405180910390f35b6100da60048036038101906100d59190611488565b6105d5565b005b3480156100e857600080fd5b5061010360048036038101906100fe9190611305565b6107ad565b604051610110919061177d565b60405180910390f35b34801561012557600080fd5b5061012e610ad4565b60405161013b919061177d565b60405180910390f35b34801561015057600080fd5b5061016b60048036038101906101669190611488565b610db6565b005b600082116101b0576040517f08c379a00000000000000000000000000000000000000000000000000000000081526004016101a7906117fc565b60405180910390fd5b62015180811180156101c45750620d2f0081105b610203576040517f08c379a00000000000000000000000000000000000000000000000000000000081526004016101fa9061188e565b60405180910390fd5b60008067ffffffffffffffff81111561021f5761021e6118ae565b5b60405190808252806020026020018201604052801561024d5781602001602082028036833780820191505090505b50905060405180610100016040528060045481526020013373ffffffffffffffffffffffffffffffffffffffff16815260200188888080601f016020809104026020016040519081016040528093929190818152602001838380828437600081840152601f19601f82011690508083019250505050505050815260200186868080601f016020809104026020016040519081016040528093929190818152602001838380828437600081840152601f19601f8201169050808301925050505050505081526020018481526020018342610326919061190c565b8152602001600081526020018281525060008060045481526020019081526020016000206000820151816000015560208201518160010160006101000a81548173ffffffffffffffffffffffffffffffffffffffff021916908373ffffffffffffffffffffffffffffffffffffffff16021790555060408201518160020190805190602001906103b7929190610fd2565b5060608201518160030190805190602001906103d4929190610fd2565b506080820151816004015560a0820151816005015560c0820151816006015560e082015181600701908051906020019061040f929190611058565b509050506004600081548092919061042690611962565b919050555050505050505050565b60606000600360008473ffffffffffffffffffffffffffffffffffffffff1673ffffffffffffffffffffffffffffffffffffffff16815260200190815260200160002090506000818054905067ffffffffffffffff811115610499576104986118ae565b5b6040519080825280602002602001820160405280156104d257816020015b6104bf6110a5565b8152602001906001900390816104b75790505b50905060005b82805490508110156105ca5760008382815481106104f9576104f86119aa565b5b906000526020600020015490506001600082815260200190815260200160002060405180608001604052908160008201548152602001600182015481526020016002820160009054906101000a900473ffffffffffffffffffffffffffffffffffffffff1673ffffffffffffffffffffffffffffffffffffffff1673ffffffffffffffffffffffffffffffffffffffff1681526020016003820154815250508383815181106105ab576105aa6119aa565b5b60200260200101819052505080806105c290611962565b9150506104d8565b508092505050919050565b600080600083815260200190815260200160002090506000600160008360060154815260200190815260200160002090508160050154421061064c576040517f08c379a000000000000000000000000000000000000000000000000000000000815260040161064390611a25565b60405180910390fd5b816004015434101580156106635750806003015434115b6106a2576040517f08c379a000000000000000000000000000000000000000000000000000000000815260040161069990611ab7565b60405180910390fd5b6005548260060181905550816007016005549080600181540180825580915050600190039060005260206000200160009091909190915055604051806080016040528060055481526020018481526020013373ffffffffffffffffffffffffffffffffffffffff16815260200134815250600160006005548152602001908152602001600020600082015181600001556020820151816001015560408201518160020160006101000a81548173ffffffffffffffffffffffffffffffffffffffff021916908373ffffffffffffffffffffffffffffffffffffffff16021790555060608201518160030155905050600560008154809291906107a390611962565b9190505550505050565b60606000600260008473ffffffffffffffffffffffffffffffffffffffff1673ffffffffffffffffffffffffffffffffffffffff16815260200190815260200160002090506000818054905067ffffffffffffffff811115610812576108116118ae565b5b60405190808252806020026020018201604052801561084b57816020015b6108386110e3565b8152602001906001900390816108305790505b50905060005b8280549050811015610ac9576000838281548110610872576108716119aa565b5b9060005260206000200154905060008082815260200190815260200160002060405180610100016040529081600082015481526020016001820160009054906101000a900473ffffffffffffffffffffffffffffffffffffffff1673ffffffffffffffffffffffffffffffffffffffff1673ffffffffffffffffffffffffffffffffffffffff16815260200160028201805461090d90611b06565b80601f016020809104026020016040519081016040528092919081815260200182805461093990611b06565b80156109865780601f1061095b57610100808354040283529160200191610986565b820191906000526020600020905b81548152906001019060200180831161096957829003601f168201915b5050505050815260200160038201805461099f90611b06565b80601f01602080910402602001604051908101604052809291908181526020018280546109cb90611b06565b8015610a185780601f106109ed57610100808354040283529160200191610a18565b820191906000526020600020905b8154815290600101906020018083116109fb57829003601f168201915b5050505050815260200160048201548152602001600582015481526020016006820154815260200160078201805480602002602001604051908101604052809291908181526020018280548015610a8e57602002820191906000526020600020905b815481526020019060010190808311610a7a575b505050505081525050838381518110610aaa57610aa96119aa565b5b6020026020010181905250508080610ac190611962565b915050610851565b508092505050919050565b606060006001600454610ae79190611b37565b67ffffffffffffffff811115610b0057610aff6118ae565b5b604051908082528060200260200182016040528015610b3957816020015b610b266110e3565b815260200190600190039081610b1e5790505b5090506000600190505b6001600454610b529190611b37565b811015610dae5760008082815260200190815260200160002060405180610100016040529081600082015481526020016001820160009054906101000a900473ffffffffffffffffffffffffffffffffffffffff1673ffffffffffffffffffffffffffffffffffffffff1673ffffffffffffffffffffffffffffffffffffffff168152602001600282018054610be790611b06565b80601f0160208091040260200160405190810160405280929190818152602001828054610c1390611b06565b8015610c605780601f10610c3557610100808354040283529160200191610c60565b820191906000526020600020905b815481529060010190602001808311610c4357829003601f168201915b50505050508152602001600382018054610c7990611b06565b80601f0160208091040260200160405190810160405280929190818152602001828054610ca590611b06565b8015610cf25780601f10610cc757610100808354040283529160200191610cf2565b820191906000526020600020905b815481529060010190602001808311610cd557829003601f168201915b5050505050815260200160048201548152602001600582015481526020016006820154815260200160078201805480602002602001604051908101604052809291908181526020018280548015610d6857602002820191906000526020600020905b815481526020019060010190808311610d54575b50505050508152505082600183610d7f9190611b37565b81518110610d9057610d8f6119aa565b5b60200260200101819052508080610da690611962565b915050610b43565b508091505090565b80600081118015610dc8575060045481105b610e07576040517f08c379a0000000000000000000000000000000000000000000000000000000008152600401610dfe90611bb7565b60405180910390fd5b6000806000848152602001908152602001600020905060006001600083600601548152602001908152602001600020905081600501544211610e7e576040517f08c379a0000000000000000000000000000000000000000000000000000000008152600401610e7590611c23565b60405180910390fd5b60005b8260070180549050811015610f5c576000836007018281548110610ea857610ea76119aa565b5b9060005260206000200154905083600601548114610f485760006001600083815260200190815260200160002090508060020160009054906101000a900473ffffffffffffffffffffffffffffffffffffffff1673ffffffffffffffffffffffffffffffffffffffff166108fc82600301549081150290604051600060405180830381858888f19350505050158015610f45573d6000803e3d6000fd5b50505b508080610f5490611962565b915050610e81565b508160010160009054906101000a900473ffffffffffffffffffffffffffffffffffffffff1673ffffffffffffffffffffffffffffffffffffffff166108fc82600301549081150290604051600060405180830381858888f19350505050158015610fcb573d6000803e3d6000fd5b5050505050565b828054610fde90611b06565b90600052602060002090601f0160209004810192826110005760008555611047565b82601f1061101957805160ff1916838001178555611047565b82800160010185558215611047579182015b8281111561104657825182559160200191906001019061102b565b5b509050611054919061113e565b5090565b828054828255906000526020600020908101928215611094579160200282015b82811115611093578251825591602001919060010190611078565b5b5090506110a1919061113e565b5090565b60405180608001604052806000815260200160008152602001600073ffffffffffffffffffffffffffffffffffffffff168152602001600081525090565b60405180610100016040528060008152602001600073ffffffffffffffffffffffffffffffffffffffff1681526020016060815260200160608152602001600081526020016000815260200160008152602001606081525090565b5b8082111561115757600081600090555060010161113f565b5090565b600080fd5b600080fd5b600080fd5b600080fd5b600080fd5b60008083601f84011261118a57611189611165565b5b8235905067ffffffffffffffff8111156111a7576111a661116a565b5b6020830191508360018202830111156111c3576111c261116f565b5b9250929050565b6000819050919050565b6111dd816111ca565b81146111e857600080fd5b50565b6000813590506111fa816111d4565b92915050565b6000806000806000806080878903121561121d5761121c61115b565b5b600087013567ffffffffffffffff81111561123b5761123a611160565b5b61124789828a01611174565b9650965050602087013567ffffffffffffffff81111561126a57611269611160565b5b61127689828a01611174565b9450945050604061128989828a016111eb565b925050606061129a89828a016111eb565b9150509295509295509295565b600073ffffffffffffffffffffffffffffffffffffffff82169050919050565b60006112d2826112a7565b9050919050565b6112e2816112c7565b81146112ed57600080fd5b50565b6000813590506112ff816112d9565b92915050565b60006020828403121561131b5761131a61115b565b5b6000611329848285016112f0565b91505092915050565b600081519050919050565b600082825260208201905092915050565b6000819050602082019050919050565b611367816111ca565b82525050565b6000611378826112a7565b9050919050565b6113888161136d565b82525050565b6080820160008201516113a4600085018261135e565b5060208201516113b7602085018261135e565b5060408201516113ca604085018261137f565b5060608201516113dd606085018261135e565b50505050565b60006113ef838361138e565b60808301905092915050565b6000602082019050919050565b600061141382611332565b61141d818561133d565b93506114288361134e565b8060005b8381101561145957815161144088826113e3565b975061144b836113fb565b92505060018101905061142c565b5085935050505092915050565b600060208201905081810360008301526114808184611408565b905092915050565b60006020828403121561149e5761149d61115b565b5b60006114ac848285016111eb565b91505092915050565b600081519050919050565b600082825260208201905092915050565b6000819050602082019050919050565b600081519050919050565b600082825260208201905092915050565b60005b8381101561151b578082015181840152602081019050611500565b8381111561152a576000848401525b50505050565b6000601f19601f8301169050919050565b600061154c826114e1565b61155681856114ec565b93506115668185602086016114fd565b61156f81611530565b840191505092915050565b600081519050919050565b600082825260208201905092915050565b6000819050602082019050919050565b60006115b2838361135e565b60208301905092915050565b6000602082019050919050565b60006115d68261157a565b6115e08185611585565b93506115eb83611596565b8060005b8381101561161c57815161160388826115a6565b975061160e836115be565b9250506001810190506115ef565b5085935050505092915050565b600061010083016000830151611642600086018261135e565b506020830151611655602086018261137f565b506040830151848203604086015261166d8282611541565b915050606083015184820360608601526116878282611541565b915050608083015161169c608086018261135e565b5060a08301516116af60a086018261135e565b5060c08301516116c260c086018261135e565b5060e083015184820360e08601526116da82826115cb565b9150508091505092915050565b60006116f38383611629565b905092915050565b6000602082019050919050565b6000611713826114b5565b61171d81856114c0565b93508360208202850161172f856114d1565b8060005b8581101561176b578484038952815161174c85826116e7565b9450611757836116fb565b925060208a01995050600181019050611733565b50829750879550505050505092915050565b600060208201905081810360008301526117978184611708565b905092915050565b600082825260208201905092915050565b7f6d696e207072696365206d7573742062652067726561746572207468616e2030600082015250565b60006117e660208361179f565b91506117f1826117b0565b602082019050919050565b60006020820190508181036000830152611815816117d9565b9050919050565b7f5f6475726174696f6e206d75737420626520636f6d707269736564206265747760008201527f65656e203120746f203130206461797300000000000000000000000000000000602082015250565b600061187860308361179f565b91506118838261181c565b604082019050919050565b600060208201905081810360008301526118a78161186b565b9050919050565b7f4e487b7100000000000000000000000000000000000000000000000000000000600052604160045260246000fd5b7f4e487b7100000000000000000000000000000000000000000000000000000000600052601160045260246000fd5b6000611917826111ca565b9150611922836111ca565b9250827fffffffffffffffffffffffffffffffffffffffffffffffffffffffffffffffff03821115611957576119566118dd565b5b828201905092915050565b600061196d826111ca565b91507fffffffffffffffffffffffffffffffffffffffffffffffffffffffffffffffff820361199f5761199e6118dd565b5b600182019050919050565b7f4e487b7100000000000000000000000000000000000000000000000000000000600052603260045260246000fd5b7f616c7265617920656e6465640000000000000000000000000000000000000000600082015250565b6000611a0f600c8361179f565b9150611a1a826119d9565b602082019050919050565b60006020820190508181036000830152611a3e81611a02565b9050919050565b7f6d73672e76616c7565206d7573742062652067726561746572207468616e206d60008201527f696e2061756374696f6e20616e64207a65726f00000000000000000000000000602082015250565b6000611aa160338361179f565b9150611aac82611a45565b604082019050919050565b60006020820190508181036000830152611ad081611a94565b9050919050565b7f4e487b7100000000000000000000000000000000000000000000000000000000600052602260045260246000fd5b60006002820490506001821680611b1e57607f821691505b602082108103611b3157611b30611ad7565b5b50919050565b6000611b42826111ca565b9150611b4d836111ca565b925082821015611b6057611b5f6118dd565b5b828203905092915050565b7f41756374696f6e206973206e6f74206578697374656400000000000000000000600082015250565b6000611ba160168361179f565b9150611bac82611b6b565b602082019050919050565b60006020820190508181036000830152611bd081611b94565b9050919050565b7f6e6f7420656e6465640000000000000000000000000000000000000000000000600082015250565b6000611c0d60098361179f565b9150611c1882611bd7565b602082019050919050565b60006020820190508181036000830152611c3c81611c00565b905091905056fea2646970667358221220382bfff221adf77c96db0cb31a78f74d716172f43113aa74956f638a79dd64ce64736f6c634300080d0033",
  "immutableReferences": {},
  "source": "// SPDX-License-Identifier: MIT\npragma solidity ^0.8.13;\n\ncontract Ebay {\n    struct Auction {\n        uint id;\n        address payable seller;\n        string name;\n        string description;\n        uint min;\n        uint end;\n        uint bestOfferId;\n        uint[] offerIds;\n    }\n\n    struct Offer {\n        uint id;\n        uint auctionId;\n        address payable buyer;\n        uint price;\n    }\n\n    mapping(uint => Auction) private auctions;\n    mapping(uint => Offer) private offers;\n    mapping(address => uint[]) private usersAuctions;\n    mapping(address => uint[]) private usersOffers;\n\n    uint private nextAuctionId = 1;\n    uint private nextOfferId = 1;\n\n    function createAuction(\n        string calldata _name,\n        string calldata _desicirption,\n        uint _min,\n        uint _duration\n    ) external {\n        require(_min > 0, \"min price must be greater than 0\");\n        require(\n            _duration > 86400 && _duration < 864000,\n            \"_duration must be comprised between 1 to 10 days\"\n        );\n\n        uint[] memory offerIds = new uint[](0);\n        auctions[nextAuctionId] = Auction(\n            nextAuctionId,\n            payable(msg.sender),\n            _name,\n            _desicirption,\n            _min,\n            block.timestamp + _duration,\n            0,\n            offerIds\n        );\n\n        nextAuctionId++;\n    }\n\n    function makeOffer(uint _auctionId) external payable {\n        Auction storage auction = auctions[_auctionId];\n        Offer storage bestOffer = offers[auction.bestOfferId];\n        require(block.timestamp < auction.end, \"alreay ended\");\n        require(\n            msg.value >= auction.min && msg.value > bestOffer.price,\n            \"msg.value must be greater than min auction and zero\"\n        );\n        auction.bestOfferId = nextOfferId;\n        auction.offerIds.push(nextOfferId);\n        offers[nextOfferId] = Offer(\n            nextOfferId,\n            _auctionId,\n            payable(msg.sender),\n            msg.value\n        );\n\n        nextOfferId++;\n    }\n\n    function trade(uint _auctionId) external auctionExists(_auctionId) {\n        Auction storage auction = auctions[_auctionId];\n        Offer storage bestOffer = offers[auction.bestOfferId];\n        require(block.timestamp > auction.end, \"not ended\");\n        for (uint i = 0; i < auction.offerIds.length; i++) {\n            uint offerId = auction.offerIds[i];\n            if (offerId != auction.bestOfferId) {\n                Offer storage offer = offers[offerId];\n                offer.buyer.transfer(offer.price);\n            }\n        }\n        auction.seller.transfer(bestOffer.price);\n    }\n\n    function getAuctions() external view returns (Auction[] memory) {\n        Auction[] memory _auctions = new Auction[](nextAuctionId - 1);\n        for (uint i = 1; i < nextAuctionId - 1; i++) {\n            _auctions[i - 1] = auctions[i];\n        }\n        return (_auctions);\n    }\n\n    function getUsersAuctions(\n        address _user\n    ) external view returns (Auction[] memory) {\n        uint[] storage usersAuctionIds = usersAuctions[_user];\n        Auction[] memory _auctions = new Auction[](usersAuctionIds.length);\n        for (uint i = 0; i < usersAuctionIds.length; i++) {\n            uint auctionId = usersAuctionIds[i];\n            _auctions[i] = auctions[auctionId];\n        }\n\n        return _auctions;\n    }\n\n    function getUsersOffers(\n        address _user\n    ) external view returns (Offer[] memory) {\n        uint[] storage usersOfferIds = usersOffers[_user];\n        Offer[] memory _offers = new Offer[](usersOfferIds.length);\n        for (uint i = 0; i < usersOfferIds.length; i++) {\n            uint offerId = usersOfferIds[i];\n            _offers[i] = offers[offerId];\n        }\n\n        return _offers;\n    }\n\n    modifier auctionExists(uint _auctionId) {\n        require(\n            _auctionId > 0 && _auctionId < nextAuctionId,\n            \"Auction is not existed\"\n        );\n        _;\n    }\n}\n",
  "sourcePath": "E:\\Coding\\Web3\\Web3 master\\Ebay\\app\\contracts\\Ebay.sol",
  "compiler": {
    "name": "solc",
    "version": "0.8.13+commit.abaa5c0e.Emscripten.clang"
  },
  "schemaVersion": "3.4.16",
  "updatedAt": "2025-01-18T09:44:56.712Z",
  "devdoc": {
    "kind": "dev",
    "methods": {},
    "version": 1
  },
  "userdoc": {
    "kind": "user",
    "methods": {},
    "version": 1
  }
}